{
	"contracts/wallet_conecter1/wallet_conecter1.sol": {
		"purchase_confirmation": {
			"abi": [
				{
					"inputs": [],
					"stateMutability": "payable",
					"type": "constructor"
				},
				{
					"inputs": [],
					"name": "invalid_state",
					"type": "error"
				},
				{
					"inputs": [],
					"name": "just_cash_provider",
					"type": "error"
				},
				{
					"inputs": [],
					"name": "just_nomada",
					"type": "error"
				},
				{
					"inputs": [],
					"name": "abort",
					"outputs": [],
					"stateMutability": "nonpayable",
					"type": "function"
				},
				{
					"inputs": [],
					"name": "cash_provider",
					"outputs": [
						{
							"internalType": "address payable",
							"name": "",
							"type": "address"
						}
					],
					"stateMutability": "view",
					"type": "function"
				},
				{
					"inputs": [],
					"name": "confirm_received",
					"outputs": [],
					"stateMutability": "nonpayable",
					"type": "function"
				},
				{
					"inputs": [],
					"name": "confirm_transaction",
					"outputs": [],
					"stateMutability": "payable",
					"type": "function"
				},
				{
					"inputs": [],
					"name": "contract_status",
					"outputs": [
						{
							"internalType": "enum purchase_confirmation.state",
							"name": "",
							"type": "uint8"
						}
					],
					"stateMutability": "view",
					"type": "function"
				},
				{
					"inputs": [],
					"name": "nomada",
					"outputs": [
						{
							"internalType": "address payable",
							"name": "",
							"type": "address"
						}
					],
					"stateMutability": "view",
					"type": "function"
				},
				{
					"inputs": [],
					"name": "pay_cash_provider",
					"outputs": [],
					"stateMutability": "nonpayable",
					"type": "function"
				},
				{
					"inputs": [],
					"name": "value1",
					"outputs": [
						{
							"internalType": "uint256",
							"name": "",
							"type": "uint256"
						}
					],
					"stateMutability": "view",
					"type": "function"
				}
			],
			"devdoc": {
				"kind": "dev",
				"methods": {},
				"version": 1
			},
			"evm": {
				"assembly": "    /* \"contracts/wallet_conecter1/wallet_conecter1.sol\":59:1867  contract purchase_confirmation {... */\n  mstore(0x40, 0x80)\n    /* \"contracts/wallet_conecter1/wallet_conecter1.sol\":354:364  msg.sender */\n  caller\n    /* \"contracts/wallet_conecter1/wallet_conecter1.sol\":337:343  nomada */\n  0x01\n  0x00\n    /* \"contracts/wallet_conecter1/wallet_conecter1.sol\":337:365  nomada = payable(msg.sender) */\n  0x0100\n  exp\n  dup2\n  sload\n  dup2\n  0xffffffffffffffffffffffffffffffffffffffff\n  mul\n  not\n  and\n  swap1\n  dup4\n  0xffffffffffffffffffffffffffffffffffffffff\n  and\n  mul\n  or\n  swap1\n  sstore\n  pop\n    /* \"contracts/wallet_conecter1/wallet_conecter1.sol\":396:397  2 */\n  0x02\n    /* \"contracts/wallet_conecter1/wallet_conecter1.sol\":384:393  msg.value */\n  callvalue\n    /* \"contracts/wallet_conecter1/wallet_conecter1.sol\":384:397  msg.value / 2 */\n  tag_3\n  swap2\n  swap1\n  tag_4\n  jump\t// in\ntag_3:\n    /* \"contracts/wallet_conecter1/wallet_conecter1.sol\":375:381  value1 */\n  0x00\n    /* \"contracts/wallet_conecter1/wallet_conecter1.sol\":375:397  value1 = msg.value / 2 */\n  dup2\n  swap1\n  sstore\n  pop\n    /* \"contracts/wallet_conecter1/wallet_conecter1.sol\":59:1867  contract purchase_confirmation {... */\n  jump(tag_5)\n    /* \"#utility.yul\":7:84   */\ntag_6:\n    /* \"#utility.yul\":44:51   */\n  0x00\n    /* \"#utility.yul\":73:78   */\n  dup2\n    /* \"#utility.yul\":62:78   */\n  swap1\n  pop\n    /* \"#utility.yul\":7:84   */\n  swap2\n  swap1\n  pop\n  jump\t// out\n    /* \"#utility.yul\":90:270   */\ntag_7:\n    /* \"#utility.yul\":138:215   */\n  0x4e487b7100000000000000000000000000000000000000000000000000000000\n    /* \"#utility.yul\":135:136   */\n  0x00\n    /* \"#utility.yul\":128:216   */\n  mstore\n    /* \"#utility.yul\":235:239   */\n  0x12\n    /* \"#utility.yul\":232:233   */\n  0x04\n    /* \"#utility.yul\":225:240   */\n  mstore\n    /* \"#utility.yul\":259:263   */\n  0x24\n    /* \"#utility.yul\":256:257   */\n  0x00\n    /* \"#utility.yul\":249:264   */\n  revert\n    /* \"#utility.yul\":462:647   */\ntag_4:\n    /* \"#utility.yul\":502:503   */\n  0x00\n    /* \"#utility.yul\":519:539   */\n  tag_14\n    /* \"#utility.yul\":537:538   */\n  dup3\n    /* \"#utility.yul\":519:539   */\n  tag_6\n  jump\t// in\ntag_14:\n    /* \"#utility.yul\":514:539   */\n  swap2\n  pop\n    /* \"#utility.yul\":553:573   */\n  tag_15\n    /* \"#utility.yul\":571:572   */\n  dup4\n    /* \"#utility.yul\":553:573   */\n  tag_6\n  jump\t// in\ntag_15:\n    /* \"#utility.yul\":548:573   */\n  swap3\n  pop\n    /* \"#utility.yul\":592:593   */\n  dup3\n    /* \"#utility.yul\":582:617   */\n  tag_16\n  jumpi\n    /* \"#utility.yul\":597:615   */\n  tag_17\n  tag_7\n  jump\t// in\ntag_17:\n    /* \"#utility.yul\":582:617   */\ntag_16:\n    /* \"#utility.yul\":639:640   */\n  dup3\n    /* \"#utility.yul\":636:637   */\n  dup3\n    /* \"#utility.yul\":632:641   */\n  div\n    /* \"#utility.yul\":627:641   */\n  swap1\n  pop\n    /* \"#utility.yul\":462:647   */\n  swap3\n  swap2\n  pop\n  pop\n  jump\t// out\n    /* \"contracts/wallet_conecter1/wallet_conecter1.sol\":59:1867  contract purchase_confirmation {... */\ntag_5:\n  dataSize(sub_0)\n  dup1\n  dataOffset(sub_0)\n  0x00\n  codecopy\n  0x00\n  return\nstop\n\nsub_0: assembly {\n        /* \"contracts/wallet_conecter1/wallet_conecter1.sol\":59:1867  contract purchase_confirmation {... */\n      mstore(0x40, 0x80)\n      jumpi(tag_1, lt(calldatasize, 0x04))\n      shr(0xe0, calldataload(0x00))\n      dup1\n      0x7602065f\n      gt\n      tag_10\n      jumpi\n      dup1\n      0x7602065f\n      eq\n      tag_6\n      jumpi\n      dup1\n      0x8b5cd554\n      eq\n      tag_7\n      jumpi\n      dup1\n      0x8f9d1da9\n      eq\n      tag_8\n      jumpi\n      dup1\n      0xa41f2f5c\n      eq\n      tag_9\n      jumpi\n      jump(tag_1)\n    tag_10:\n      dup1\n      0x1af52a25\n      eq\n      tag_2\n      jumpi\n      dup1\n      0x2b1bf48f\n      eq\n      tag_3\n      jumpi\n      dup1\n      0x3033413b\n      eq\n      tag_4\n      jumpi\n      dup1\n      0x35a063b4\n      eq\n      tag_5\n      jumpi\n    tag_1:\n      0x00\n      dup1\n      revert\n        /* \"contracts/wallet_conecter1/wallet_conecter1.sol\":156:192  address payable public cash_provider */\n    tag_2:\n      callvalue\n      dup1\n      iszero\n      tag_11\n      jumpi\n      0x00\n      dup1\n      revert\n    tag_11:\n      pop\n      tag_12\n      tag_13\n      jump\t// in\n    tag_12:\n      mload(0x40)\n      tag_14\n      swap2\n      swap1\n      tag_15\n      jump\t// in\n    tag_14:\n      mload(0x40)\n      dup1\n      swap2\n      sub\n      swap1\n      return\n        /* \"contracts/wallet_conecter1/wallet_conecter1.sol\":270:298  state public contract_status */\n    tag_3:\n      callvalue\n      dup1\n      iszero\n      tag_16\n      jumpi\n      0x00\n      dup1\n      revert\n    tag_16:\n      pop\n      tag_17\n      tag_18\n      jump\t// in\n    tag_17:\n      mload(0x40)\n      tag_19\n      swap2\n      swap1\n      tag_20\n      jump\t// in\n    tag_19:\n      mload(0x40)\n      dup1\n      swap2\n      sub\n      swap1\n      return\n        /* \"contracts/wallet_conecter1/wallet_conecter1.sol\":97:115  uint public value1 */\n    tag_4:\n      callvalue\n      dup1\n      iszero\n      tag_21\n      jumpi\n      0x00\n      dup1\n      revert\n    tag_21:\n      pop\n      tag_22\n      tag_23\n      jump\t// in\n    tag_22:\n      mload(0x40)\n      tag_24\n      swap2\n      swap1\n      tag_25\n      jump\t// in\n    tag_24:\n      mload(0x40)\n      dup1\n      swap2\n      sub\n      swap1\n      return\n        /* \"contracts/wallet_conecter1/wallet_conecter1.sol\":1703:1865  function abort() external only_nomada() in_state(state.created) {... */\n    tag_5:\n      callvalue\n      dup1\n      iszero\n      tag_26\n      jumpi\n      0x00\n      dup1\n      revert\n    tag_26:\n      pop\n      tag_27\n      tag_28\n      jump\t// in\n    tag_27:\n      stop\n        /* \"contracts/wallet_conecter1/wallet_conecter1.sol\":121:150  address payable public nomada */\n    tag_6:\n      callvalue\n      dup1\n      iszero\n      tag_29\n      jumpi\n      0x00\n      dup1\n      revert\n    tag_29:\n      pop\n      tag_30\n      tag_31\n      jump\t// in\n    tag_30:\n      mload(0x40)\n      tag_32\n      swap2\n      swap1\n      tag_15\n      jump\t// in\n    tag_32:\n      mload(0x40)\n      dup1\n      swap2\n      sub\n      swap1\n      return\n        /* \"contracts/wallet_conecter1/wallet_conecter1.sol\":1074:1354  function confirm_transaction() external in_state(state.created) only_cash_provider payable {... */\n    tag_7:\n      tag_33\n      tag_34\n      jump\t// in\n    tag_33:\n      stop\n        /* \"contracts/wallet_conecter1/wallet_conecter1.sol\":1360:1529  function confirm_received() external only_cash_provider() in_state(state.locked) {... */\n    tag_8:\n      callvalue\n      dup1\n      iszero\n      tag_35\n      jumpi\n      0x00\n      dup1\n      revert\n    tag_35:\n      pop\n      tag_36\n      tag_37\n      jump\t// in\n    tag_36:\n      stop\n        /* \"contracts/wallet_conecter1/wallet_conecter1.sol\":1535:1697  function pay_cash_provider() external only_nomada() in_state(state.release){... */\n    tag_9:\n      callvalue\n      dup1\n      iszero\n      tag_38\n      jumpi\n      0x00\n      dup1\n      revert\n    tag_38:\n      pop\n      tag_39\n      tag_40\n      jump\t// in\n    tag_39:\n      stop\n        /* \"contracts/wallet_conecter1/wallet_conecter1.sol\":156:192  address payable public cash_provider */\n    tag_13:\n      0x02\n      0x00\n      swap1\n      sload\n      swap1\n      0x0100\n      exp\n      swap1\n      div\n      0xffffffffffffffffffffffffffffffffffffffff\n      and\n      dup2\n      jump\t// out\n        /* \"contracts/wallet_conecter1/wallet_conecter1.sol\":270:298  state public contract_status */\n    tag_18:\n      0x02\n      0x14\n      swap1\n      sload\n      swap1\n      0x0100\n      exp\n      swap1\n      div\n      0xff\n      and\n      dup2\n      jump\t// out\n        /* \"contracts/wallet_conecter1/wallet_conecter1.sol\":97:115  uint public value1 */\n    tag_23:\n      sload(0x00)\n      dup2\n      jump\t// out\n        /* \"contracts/wallet_conecter1/wallet_conecter1.sol\":1703:1865  function abort() external only_nomada() in_state(state.created) {... */\n    tag_28:\n        /* \"contracts/wallet_conecter1/wallet_conecter1.sol\":708:714  nomada */\n      0x01\n      0x00\n      swap1\n      sload\n      swap1\n      0x0100\n      exp\n      swap1\n      div\n      0xffffffffffffffffffffffffffffffffffffffff\n      and\n        /* \"contracts/wallet_conecter1/wallet_conecter1.sol\":694:714  msg.sender != nomada */\n      0xffffffffffffffffffffffffffffffffffffffff\n      and\n        /* \"contracts/wallet_conecter1/wallet_conecter1.sol\":694:704  msg.sender */\n      caller\n        /* \"contracts/wallet_conecter1/wallet_conecter1.sol\":694:714  msg.sender != nomada */\n      0xffffffffffffffffffffffffffffffffffffffff\n      and\n      eq\n        /* \"contracts/wallet_conecter1/wallet_conecter1.sol\":691:760  if(msg.sender != nomada){... */\n      tag_42\n      jumpi\n        /* \"contracts/wallet_conecter1/wallet_conecter1.sol\":736:749  just_nomada() */\n      mload(0x40)\n      0x0864875400000000000000000000000000000000000000000000000000000000\n      dup2\n      mstore\n      0x04\n      add\n      mload(0x40)\n      dup1\n      swap2\n      sub\n      swap1\n      revert\n        /* \"contracts/wallet_conecter1/wallet_conecter1.sol\":691:760  if(msg.sender != nomada){... */\n    tag_42:\n        /* \"contracts/wallet_conecter1/wallet_conecter1.sol\":1752:1765  state.created */\n      0x00\n        /* \"contracts/wallet_conecter1/wallet_conecter1.sol\":993:999  state_ */\n      dup1\n        /* \"contracts/wallet_conecter1/wallet_conecter1.sol\":974:999  contract_status != state_ */\n      0x03\n      dup2\n      gt\n      iszero\n      tag_44\n      jumpi\n      tag_45\n      tag_46\n      jump\t// in\n    tag_45:\n    tag_44:\n        /* \"contracts/wallet_conecter1/wallet_conecter1.sol\":974:989  contract_status */\n      0x02\n      0x14\n      swap1\n      sload\n      swap1\n      0x0100\n      exp\n      swap1\n      div\n      0xff\n      and\n        /* \"contracts/wallet_conecter1/wallet_conecter1.sol\":974:999  contract_status != state_ */\n      0x03\n      dup2\n      gt\n      iszero\n      tag_47\n      jumpi\n      tag_48\n      tag_46\n      jump\t// in\n    tag_48:\n    tag_47:\n      eq\n        /* \"contracts/wallet_conecter1/wallet_conecter1.sol\":971:1047  if(contract_status != state_){... */\n      tag_49\n      jumpi\n        /* \"contracts/wallet_conecter1/wallet_conecter1.sol\":1021:1036  invalid_state() */\n      mload(0x40)\n      0x51f7639800000000000000000000000000000000000000000000000000000000\n      dup2\n      mstore\n      0x04\n      add\n      mload(0x40)\n      dup1\n      swap2\n      sub\n      swap1\n      revert\n        /* \"contracts/wallet_conecter1/wallet_conecter1.sol\":971:1047  if(contract_status != state_){... */\n    tag_49:\n        /* \"contracts/wallet_conecter1/wallet_conecter1.sol\":1795:1809  state.inactive */\n      0x03\n        /* \"contracts/wallet_conecter1/wallet_conecter1.sol\":1777:1792  contract_status */\n      0x02\n      0x14\n        /* \"contracts/wallet_conecter1/wallet_conecter1.sol\":1777:1809  contract_status = state.inactive */\n      0x0100\n      exp\n      dup2\n      sload\n      dup2\n      0xff\n      mul\n      not\n      and\n      swap1\n      dup4\n      0x03\n      dup2\n      gt\n      iszero\n      tag_51\n      jumpi\n      tag_52\n      tag_46\n      jump\t// in\n    tag_52:\n    tag_51:\n      mul\n      or\n      swap1\n      sstore\n      pop\n        /* \"contracts/wallet_conecter1/wallet_conecter1.sol\":1820:1826  nomada */\n      0x01\n      0x00\n      swap1\n      sload\n      swap1\n      0x0100\n      exp\n      swap1\n      div\n      0xffffffffffffffffffffffffffffffffffffffff\n      and\n        /* \"contracts/wallet_conecter1/wallet_conecter1.sol\":1820:1835  nomada.transfer */\n      0xffffffffffffffffffffffffffffffffffffffff\n      and\n        /* \"contracts/wallet_conecter1/wallet_conecter1.sol\":1820:1858  nomada.transfer(address(this).balance) */\n      0x08fc\n        /* \"contracts/wallet_conecter1/wallet_conecter1.sol\":1836:1857  address(this).balance */\n      selfbalance\n        /* \"contracts/wallet_conecter1/wallet_conecter1.sol\":1820:1858  nomada.transfer(address(this).balance) */\n      swap1\n      dup2\n      iszero\n      mul\n      swap1\n      mload(0x40)\n      0x00\n      mload(0x40)\n      dup1\n      dup4\n      sub\n      dup2\n      dup6\n      dup9\n      dup9\n      call\n      swap4\n      pop\n      pop\n      pop\n      pop\n      iszero\n      dup1\n      iszero\n      tag_54\n      jumpi\n      returndatasize\n      0x00\n      dup1\n      returndatacopy\n      revert(0x00, returndatasize)\n    tag_54:\n      pop\n        /* \"contracts/wallet_conecter1/wallet_conecter1.sol\":769:770  _ */\n      pop\n        /* \"contracts/wallet_conecter1/wallet_conecter1.sol\":1703:1865  function abort() external only_nomada() in_state(state.created) {... */\n      jump\t// out\n        /* \"contracts/wallet_conecter1/wallet_conecter1.sol\":121:150  address payable public nomada */\n    tag_31:\n      0x01\n      0x00\n      swap1\n      sload\n      swap1\n      0x0100\n      exp\n      swap1\n      div\n      0xffffffffffffffffffffffffffffffffffffffff\n      and\n      dup2\n      jump\t// out\n        /* \"contracts/wallet_conecter1/wallet_conecter1.sol\":1074:1354  function confirm_transaction() external in_state(state.created) only_cash_provider payable {... */\n    tag_34:\n        /* \"contracts/wallet_conecter1/wallet_conecter1.sol\":1123:1136  state.created */\n      0x00\n        /* \"contracts/wallet_conecter1/wallet_conecter1.sol\":993:999  state_ */\n      dup1\n        /* \"contracts/wallet_conecter1/wallet_conecter1.sol\":974:999  contract_status != state_ */\n      0x03\n      dup2\n      gt\n      iszero\n      tag_56\n      jumpi\n      tag_57\n      tag_46\n      jump\t// in\n    tag_57:\n    tag_56:\n        /* \"contracts/wallet_conecter1/wallet_conecter1.sol\":974:989  contract_status */\n      0x02\n      0x14\n      swap1\n      sload\n      swap1\n      0x0100\n      exp\n      swap1\n      div\n      0xff\n      and\n        /* \"contracts/wallet_conecter1/wallet_conecter1.sol\":974:999  contract_status != state_ */\n      0x03\n      dup2\n      gt\n      iszero\n      tag_58\n      jumpi\n      tag_59\n      tag_46\n      jump\t// in\n    tag_59:\n    tag_58:\n      eq\n        /* \"contracts/wallet_conecter1/wallet_conecter1.sol\":971:1047  if(contract_status != state_){... */\n      tag_60\n      jumpi\n        /* \"contracts/wallet_conecter1/wallet_conecter1.sol\":1021:1036  invalid_state() */\n      mload(0x40)\n      0x51f7639800000000000000000000000000000000000000000000000000000000\n      dup2\n      mstore\n      0x04\n      add\n      mload(0x40)\n      dup1\n      swap2\n      sub\n      swap1\n      revert\n        /* \"contracts/wallet_conecter1/wallet_conecter1.sol\":971:1047  if(contract_status != state_){... */\n    tag_60:\n        /* \"contracts/wallet_conecter1/wallet_conecter1.sol\":840:853  cash_provider */\n      0x02\n      0x00\n      swap1\n      sload\n      swap1\n      0x0100\n      exp\n      swap1\n      div\n      0xffffffffffffffffffffffffffffffffffffffff\n      and\n        /* \"contracts/wallet_conecter1/wallet_conecter1.sol\":826:853  msg.sender != cash_provider */\n      0xffffffffffffffffffffffffffffffffffffffff\n      and\n        /* \"contracts/wallet_conecter1/wallet_conecter1.sol\":826:836  msg.sender */\n      caller\n        /* \"contracts/wallet_conecter1/wallet_conecter1.sol\":826:853  msg.sender != cash_provider */\n      0xffffffffffffffffffffffffffffffffffffffff\n      and\n      eq\n        /* \"contracts/wallet_conecter1/wallet_conecter1.sol\":823:906  if(msg.sender != cash_provider){... */\n      tag_62\n      jumpi\n        /* \"contracts/wallet_conecter1/wallet_conecter1.sol\":875:895  just_cash_provider() */\n      mload(0x40)\n      0xef9f007300000000000000000000000000000000000000000000000000000000\n      dup2\n      mstore\n      0x04\n      add\n      mload(0x40)\n      dup1\n      swap2\n      sub\n      swap1\n      revert\n        /* \"contracts/wallet_conecter1/wallet_conecter1.sol\":823:906  if(msg.sender != cash_provider){... */\n    tag_62:\n        /* \"contracts/wallet_conecter1/wallet_conecter1.sol\":1205:1211  value1 */\n      sload(0x00)\n        /* \"contracts/wallet_conecter1/wallet_conecter1.sol\":1192:1201  msg.value */\n      callvalue\n        /* \"contracts/wallet_conecter1/wallet_conecter1.sol\":1192:1211  msg.value == value1 */\n      eq\n        /* \"contracts/wallet_conecter1/wallet_conecter1.sol\":1184:1244  require(msg.value == value1, \"Please send amount to change\") */\n      tag_64\n      jumpi\n      mload(0x40)\n      0x08c379a000000000000000000000000000000000000000000000000000000000\n      dup2\n      mstore\n      0x04\n      add\n      tag_65\n      swap1\n      tag_66\n      jump\t// in\n    tag_65:\n      mload(0x40)\n      dup1\n      swap2\n      sub\n      swap1\n      revert\n    tag_64:\n        /* \"contracts/wallet_conecter1/wallet_conecter1.sol\":1287:1297  msg.sender */\n      caller\n        /* \"contracts/wallet_conecter1/wallet_conecter1.sol\":1263:1276  cash_provider */\n      0x02\n      0x00\n        /* \"contracts/wallet_conecter1/wallet_conecter1.sol\":1263:1298  cash_provider = payable(msg.sender) */\n      0x0100\n      exp\n      dup2\n      sload\n      dup2\n      0xffffffffffffffffffffffffffffffffffffffff\n      mul\n      not\n      and\n      swap1\n      dup4\n      0xffffffffffffffffffffffffffffffffffffffff\n      and\n      mul\n      or\n      swap1\n      sstore\n      pop\n        /* \"contracts/wallet_conecter1/wallet_conecter1.sol\":1335:1347  state.locked */\n      0x01\n        /* \"contracts/wallet_conecter1/wallet_conecter1.sol\":1317:1332  contract_status */\n      0x02\n      0x14\n        /* \"contracts/wallet_conecter1/wallet_conecter1.sol\":1317:1347  contract_status = state.locked */\n      0x0100\n      exp\n      dup2\n      sload\n      dup2\n      0xff\n      mul\n      not\n      and\n      swap1\n      dup4\n      0x03\n      dup2\n      gt\n      iszero\n      tag_67\n      jumpi\n      tag_68\n      tag_46\n      jump\t// in\n    tag_68:\n    tag_67:\n      mul\n      or\n      swap1\n      sstore\n      pop\n        /* \"contracts/wallet_conecter1/wallet_conecter1.sol\":1074:1354  function confirm_transaction() external in_state(state.created) only_cash_provider payable {... */\n      pop\n      jump\t// out\n        /* \"contracts/wallet_conecter1/wallet_conecter1.sol\":1360:1529  function confirm_received() external only_cash_provider() in_state(state.locked) {... */\n    tag_37:\n        /* \"contracts/wallet_conecter1/wallet_conecter1.sol\":840:853  cash_provider */\n      0x02\n      0x00\n      swap1\n      sload\n      swap1\n      0x0100\n      exp\n      swap1\n      div\n      0xffffffffffffffffffffffffffffffffffffffff\n      and\n        /* \"contracts/wallet_conecter1/wallet_conecter1.sol\":826:853  msg.sender != cash_provider */\n      0xffffffffffffffffffffffffffffffffffffffff\n      and\n        /* \"contracts/wallet_conecter1/wallet_conecter1.sol\":826:836  msg.sender */\n      caller\n        /* \"contracts/wallet_conecter1/wallet_conecter1.sol\":826:853  msg.sender != cash_provider */\n      0xffffffffffffffffffffffffffffffffffffffff\n      and\n      eq\n        /* \"contracts/wallet_conecter1/wallet_conecter1.sol\":823:906  if(msg.sender != cash_provider){... */\n      tag_70\n      jumpi\n        /* \"contracts/wallet_conecter1/wallet_conecter1.sol\":875:895  just_cash_provider() */\n      mload(0x40)\n      0xef9f007300000000000000000000000000000000000000000000000000000000\n      dup2\n      mstore\n      0x04\n      add\n      mload(0x40)\n      dup1\n      swap2\n      sub\n      swap1\n      revert\n        /* \"contracts/wallet_conecter1/wallet_conecter1.sol\":823:906  if(msg.sender != cash_provider){... */\n    tag_70:\n        /* \"contracts/wallet_conecter1/wallet_conecter1.sol\":1427:1439  state.locked */\n      0x01\n        /* \"contracts/wallet_conecter1/wallet_conecter1.sol\":993:999  state_ */\n      dup1\n        /* \"contracts/wallet_conecter1/wallet_conecter1.sol\":974:999  contract_status != state_ */\n      0x03\n      dup2\n      gt\n      iszero\n      tag_72\n      jumpi\n      tag_73\n      tag_46\n      jump\t// in\n    tag_73:\n    tag_72:\n        /* \"contracts/wallet_conecter1/wallet_conecter1.sol\":974:989  contract_status */\n      0x02\n      0x14\n      swap1\n      sload\n      swap1\n      0x0100\n      exp\n      swap1\n      div\n      0xff\n      and\n        /* \"contracts/wallet_conecter1/wallet_conecter1.sol\":974:999  contract_status != state_ */\n      0x03\n      dup2\n      gt\n      iszero\n      tag_74\n      jumpi\n      tag_75\n      tag_46\n      jump\t// in\n    tag_75:\n    tag_74:\n      eq\n        /* \"contracts/wallet_conecter1/wallet_conecter1.sol\":971:1047  if(contract_status != state_){... */\n      tag_76\n      jumpi\n        /* \"contracts/wallet_conecter1/wallet_conecter1.sol\":1021:1036  invalid_state() */\n      mload(0x40)\n      0x51f7639800000000000000000000000000000000000000000000000000000000\n      dup2\n      mstore\n      0x04\n      add\n      mload(0x40)\n      dup1\n      swap2\n      sub\n      swap1\n      revert\n        /* \"contracts/wallet_conecter1/wallet_conecter1.sol\":971:1047  if(contract_status != state_){... */\n    tag_76:\n        /* \"contracts/wallet_conecter1/wallet_conecter1.sol\":1469:1482  state.release */\n      0x02\n        /* \"contracts/wallet_conecter1/wallet_conecter1.sol\":1451:1466  contract_status */\n      dup1\n      0x14\n        /* \"contracts/wallet_conecter1/wallet_conecter1.sol\":1451:1482  contract_status = state.release */\n      0x0100\n      exp\n      dup2\n      sload\n      dup2\n      0xff\n      mul\n      not\n      and\n      swap1\n      dup4\n      0x03\n      dup2\n      gt\n      iszero\n      tag_78\n      jumpi\n      tag_79\n      tag_46\n      jump\t// in\n    tag_79:\n    tag_78:\n      mul\n      or\n      swap1\n      sstore\n      pop\n        /* \"contracts/wallet_conecter1/wallet_conecter1.sol\":1492:1505  cash_provider */\n      0x02\n      0x00\n      swap1\n      sload\n      swap1\n      0x0100\n      exp\n      swap1\n      div\n      0xffffffffffffffffffffffffffffffffffffffff\n      and\n        /* \"contracts/wallet_conecter1/wallet_conecter1.sol\":1492:1514  cash_provider.transfer */\n      0xffffffffffffffffffffffffffffffffffffffff\n      and\n        /* \"contracts/wallet_conecter1/wallet_conecter1.sol\":1492:1522  cash_provider.transfer(value1) */\n      0x08fc\n        /* \"contracts/wallet_conecter1/wallet_conecter1.sol\":1515:1521  value1 */\n      sload(0x00)\n        /* \"contracts/wallet_conecter1/wallet_conecter1.sol\":1492:1522  cash_provider.transfer(value1) */\n      swap1\n      dup2\n      iszero\n      mul\n      swap1\n      mload(0x40)\n      0x00\n      mload(0x40)\n      dup1\n      dup4\n      sub\n      dup2\n      dup6\n      dup9\n      dup9\n      call\n      swap4\n      pop\n      pop\n      pop\n      pop\n      iszero\n      dup1\n      iszero\n      tag_81\n      jumpi\n      returndatasize\n      0x00\n      dup1\n      returndatacopy\n      revert(0x00, returndatasize)\n    tag_81:\n      pop\n        /* \"contracts/wallet_conecter1/wallet_conecter1.sol\":915:916  _ */\n      pop\n        /* \"contracts/wallet_conecter1/wallet_conecter1.sol\":1360:1529  function confirm_received() external only_cash_provider() in_state(state.locked) {... */\n      jump\t// out\n        /* \"contracts/wallet_conecter1/wallet_conecter1.sol\":1535:1697  function pay_cash_provider() external only_nomada() in_state(state.release){... */\n    tag_40:\n        /* \"contracts/wallet_conecter1/wallet_conecter1.sol\":708:714  nomada */\n      0x01\n      0x00\n      swap1\n      sload\n      swap1\n      0x0100\n      exp\n      swap1\n      div\n      0xffffffffffffffffffffffffffffffffffffffff\n      and\n        /* \"contracts/wallet_conecter1/wallet_conecter1.sol\":694:714  msg.sender != nomada */\n      0xffffffffffffffffffffffffffffffffffffffff\n      and\n        /* \"contracts/wallet_conecter1/wallet_conecter1.sol\":694:704  msg.sender */\n      caller\n        /* \"contracts/wallet_conecter1/wallet_conecter1.sol\":694:714  msg.sender != nomada */\n      0xffffffffffffffffffffffffffffffffffffffff\n      and\n      eq\n        /* \"contracts/wallet_conecter1/wallet_conecter1.sol\":691:760  if(msg.sender != nomada){... */\n      tag_83\n      jumpi\n        /* \"contracts/wallet_conecter1/wallet_conecter1.sol\":736:749  just_nomada() */\n      mload(0x40)\n      0x0864875400000000000000000000000000000000000000000000000000000000\n      dup2\n      mstore\n      0x04\n      add\n      mload(0x40)\n      dup1\n      swap2\n      sub\n      swap1\n      revert\n        /* \"contracts/wallet_conecter1/wallet_conecter1.sol\":691:760  if(msg.sender != nomada){... */\n    tag_83:\n        /* \"contracts/wallet_conecter1/wallet_conecter1.sol\":1596:1609  state.release */\n      0x02\n        /* \"contracts/wallet_conecter1/wallet_conecter1.sol\":993:999  state_ */\n      dup1\n        /* \"contracts/wallet_conecter1/wallet_conecter1.sol\":974:999  contract_status != state_ */\n      0x03\n      dup2\n      gt\n      iszero\n      tag_85\n      jumpi\n      tag_86\n      tag_46\n      jump\t// in\n    tag_86:\n    tag_85:\n        /* \"contracts/wallet_conecter1/wallet_conecter1.sol\":974:989  contract_status */\n      0x02\n      0x14\n      swap1\n      sload\n      swap1\n      0x0100\n      exp\n      swap1\n      div\n      0xff\n      and\n        /* \"contracts/wallet_conecter1/wallet_conecter1.sol\":974:999  contract_status != state_ */\n      0x03\n      dup2\n      gt\n      iszero\n      tag_87\n      jumpi\n      tag_88\n      tag_46\n      jump\t// in\n    tag_88:\n    tag_87:\n      eq\n        /* \"contracts/wallet_conecter1/wallet_conecter1.sol\":971:1047  if(contract_status != state_){... */\n      tag_89\n      jumpi\n        /* \"contracts/wallet_conecter1/wallet_conecter1.sol\":1021:1036  invalid_state() */\n      mload(0x40)\n      0x51f7639800000000000000000000000000000000000000000000000000000000\n      dup2\n      mstore\n      0x04\n      add\n      mload(0x40)\n      dup1\n      swap2\n      sub\n      swap1\n      revert\n        /* \"contracts/wallet_conecter1/wallet_conecter1.sol\":971:1047  if(contract_status != state_){... */\n    tag_89:\n        /* \"contracts/wallet_conecter1/wallet_conecter1.sol\":1638:1652  state.inactive */\n      0x03\n        /* \"contracts/wallet_conecter1/wallet_conecter1.sol\":1620:1635  contract_status */\n      0x02\n      0x14\n        /* \"contracts/wallet_conecter1/wallet_conecter1.sol\":1620:1652  contract_status = state.inactive */\n      0x0100\n      exp\n      dup2\n      sload\n      dup2\n      0xff\n      mul\n      not\n      and\n      swap1\n      dup4\n      0x03\n      dup2\n      gt\n      iszero\n      tag_91\n      jumpi\n      tag_92\n      tag_46\n      jump\t// in\n    tag_92:\n    tag_91:\n      mul\n      or\n      swap1\n      sstore\n      pop\n        /* \"contracts/wallet_conecter1/wallet_conecter1.sol\":1663:1669  nomada */\n      0x01\n      0x00\n      swap1\n      sload\n      swap1\n      0x0100\n      exp\n      swap1\n      div\n      0xffffffffffffffffffffffffffffffffffffffff\n      and\n        /* \"contracts/wallet_conecter1/wallet_conecter1.sol\":1663:1678  nomada.transfer */\n      0xffffffffffffffffffffffffffffffffffffffff\n      and\n        /* \"contracts/wallet_conecter1/wallet_conecter1.sol\":1663:1690  nomada.transfer(3 * value1) */\n      0x08fc\n        /* \"contracts/wallet_conecter1/wallet_conecter1.sol\":1683:1689  value1 */\n      sload(0x00)\n        /* \"contracts/wallet_conecter1/wallet_conecter1.sol\":1679:1680  3 */\n      0x03\n        /* \"contracts/wallet_conecter1/wallet_conecter1.sol\":1679:1689  3 * value1 */\n      tag_93\n      swap2\n      swap1\n      tag_94\n      jump\t// in\n    tag_93:\n        /* \"contracts/wallet_conecter1/wallet_conecter1.sol\":1663:1690  nomada.transfer(3 * value1) */\n      swap1\n      dup2\n      iszero\n      mul\n      swap1\n      mload(0x40)\n      0x00\n      mload(0x40)\n      dup1\n      dup4\n      sub\n      dup2\n      dup6\n      dup9\n      dup9\n      call\n      swap4\n      pop\n      pop\n      pop\n      pop\n      iszero\n      dup1\n      iszero\n      tag_96\n      jumpi\n      returndatasize\n      0x00\n      dup1\n      returndatacopy\n      revert(0x00, returndatasize)\n    tag_96:\n      pop\n        /* \"contracts/wallet_conecter1/wallet_conecter1.sol\":769:770  _ */\n      pop\n        /* \"contracts/wallet_conecter1/wallet_conecter1.sol\":1535:1697  function pay_cash_provider() external only_nomada() in_state(state.release){... */\n      jump\t// out\n        /* \"#utility.yul\":7:133   */\n    tag_97:\n        /* \"#utility.yul\":44:51   */\n      0x00\n        /* \"#utility.yul\":84:126   */\n      0xffffffffffffffffffffffffffffffffffffffff\n        /* \"#utility.yul\":77:82   */\n      dup3\n        /* \"#utility.yul\":73:127   */\n      and\n        /* \"#utility.yul\":62:127   */\n      swap1\n      pop\n        /* \"#utility.yul\":7:133   */\n      swap2\n      swap1\n      pop\n      jump\t// out\n        /* \"#utility.yul\":139:243   */\n    tag_98:\n        /* \"#utility.yul\":184:191   */\n      0x00\n        /* \"#utility.yul\":213:237   */\n      tag_113\n        /* \"#utility.yul\":231:236   */\n      dup3\n        /* \"#utility.yul\":213:237   */\n      tag_97\n      jump\t// in\n    tag_113:\n        /* \"#utility.yul\":202:237   */\n      swap1\n      pop\n        /* \"#utility.yul\":139:243   */\n      swap2\n      swap1\n      pop\n      jump\t// out\n        /* \"#utility.yul\":249:391   */\n    tag_99:\n        /* \"#utility.yul\":352:384   */\n      tag_115\n        /* \"#utility.yul\":378:383   */\n      dup2\n        /* \"#utility.yul\":352:384   */\n      tag_98\n      jump\t// in\n    tag_115:\n        /* \"#utility.yul\":347:350   */\n      dup3\n        /* \"#utility.yul\":340:385   */\n      mstore\n        /* \"#utility.yul\":249:391   */\n      pop\n      pop\n      jump\t// out\n        /* \"#utility.yul\":397:651   */\n    tag_15:\n        /* \"#utility.yul\":506:510   */\n      0x00\n        /* \"#utility.yul\":544:546   */\n      0x20\n        /* \"#utility.yul\":533:542   */\n      dup3\n        /* \"#utility.yul\":529:547   */\n      add\n        /* \"#utility.yul\":521:547   */\n      swap1\n      pop\n        /* \"#utility.yul\":557:644   */\n      tag_117\n        /* \"#utility.yul\":641:642   */\n      0x00\n        /* \"#utility.yul\":630:639   */\n      dup4\n        /* \"#utility.yul\":626:643   */\n      add\n        /* \"#utility.yul\":617:623   */\n      dup5\n        /* \"#utility.yul\":557:644   */\n      tag_99\n      jump\t// in\n    tag_117:\n        /* \"#utility.yul\":397:651   */\n      swap3\n      swap2\n      pop\n      pop\n      jump\t// out\n        /* \"#utility.yul\":657:837   */\n    tag_46:\n        /* \"#utility.yul\":705:782   */\n      0x4e487b7100000000000000000000000000000000000000000000000000000000\n        /* \"#utility.yul\":702:703   */\n      0x00\n        /* \"#utility.yul\":695:783   */\n      mstore\n        /* \"#utility.yul\":802:806   */\n      0x21\n        /* \"#utility.yul\":799:800   */\n      0x04\n        /* \"#utility.yul\":792:807   */\n      mstore\n        /* \"#utility.yul\":826:830   */\n      0x24\n        /* \"#utility.yul\":823:824   */\n      0x00\n        /* \"#utility.yul\":816:831   */\n      revert\n        /* \"#utility.yul\":843:956   */\n    tag_100:\n        /* \"#utility.yul\":924:925   */\n      0x04\n        /* \"#utility.yul\":917:922   */\n      dup2\n        /* \"#utility.yul\":914:926   */\n      lt\n        /* \"#utility.yul\":904:950   */\n      tag_120\n      jumpi\n        /* \"#utility.yul\":930:948   */\n      tag_121\n      tag_46\n      jump\t// in\n    tag_121:\n        /* \"#utility.yul\":904:950   */\n    tag_120:\n        /* \"#utility.yul\":843:956   */\n      pop\n      jump\t// out\n        /* \"#utility.yul\":962:1089   */\n    tag_101:\n        /* \"#utility.yul\":1007:1014   */\n      0x00\n        /* \"#utility.yul\":1036:1041   */\n      dup2\n        /* \"#utility.yul\":1025:1041   */\n      swap1\n      pop\n        /* \"#utility.yul\":1042:1083   */\n      tag_123\n        /* \"#utility.yul\":1077:1082   */\n      dup3\n        /* \"#utility.yul\":1042:1083   */\n      tag_100\n      jump\t// in\n    tag_123:\n        /* \"#utility.yul\":962:1089   */\n      swap2\n      swap1\n      pop\n      jump\t// out\n        /* \"#utility.yul\":1095:1222   */\n    tag_102:\n        /* \"#utility.yul\":1151:1160   */\n      0x00\n        /* \"#utility.yul\":1184:1216   */\n      tag_125\n        /* \"#utility.yul\":1210:1215   */\n      dup3\n        /* \"#utility.yul\":1184:1216   */\n      tag_101\n      jump\t// in\n    tag_125:\n        /* \"#utility.yul\":1171:1216   */\n      swap1\n      pop\n        /* \"#utility.yul\":1095:1222   */\n      swap2\n      swap1\n      pop\n      jump\t// out\n        /* \"#utility.yul\":1228:1371   */\n    tag_103:\n        /* \"#utility.yul\":1321:1364   */\n      tag_127\n        /* \"#utility.yul\":1358:1363   */\n      dup2\n        /* \"#utility.yul\":1321:1364   */\n      tag_102\n      jump\t// in\n    tag_127:\n        /* \"#utility.yul\":1316:1319   */\n      dup3\n        /* \"#utility.yul\":1309:1365   */\n      mstore\n        /* \"#utility.yul\":1228:1371   */\n      pop\n      pop\n      jump\t// out\n        /* \"#utility.yul\":1377:1611   */\n    tag_20:\n        /* \"#utility.yul\":1476:1480   */\n      0x00\n        /* \"#utility.yul\":1514:1516   */\n      0x20\n        /* \"#utility.yul\":1503:1512   */\n      dup3\n        /* \"#utility.yul\":1499:1517   */\n      add\n        /* \"#utility.yul\":1491:1517   */\n      swap1\n      pop\n        /* \"#utility.yul\":1527:1604   */\n      tag_129\n        /* \"#utility.yul\":1601:1602   */\n      0x00\n        /* \"#utility.yul\":1590:1599   */\n      dup4\n        /* \"#utility.yul\":1586:1603   */\n      add\n        /* \"#utility.yul\":1577:1583   */\n      dup5\n        /* \"#utility.yul\":1527:1604   */\n      tag_103\n      jump\t// in\n    tag_129:\n        /* \"#utility.yul\":1377:1611   */\n      swap3\n      swap2\n      pop\n      pop\n      jump\t// out\n        /* \"#utility.yul\":1617:1694   */\n    tag_104:\n        /* \"#utility.yul\":1654:1661   */\n      0x00\n        /* \"#utility.yul\":1683:1688   */\n      dup2\n        /* \"#utility.yul\":1672:1688   */\n      swap1\n      pop\n        /* \"#utility.yul\":1617:1694   */\n      swap2\n      swap1\n      pop\n      jump\t// out\n        /* \"#utility.yul\":1700:1818   */\n    tag_105:\n        /* \"#utility.yul\":1787:1811   */\n      tag_132\n        /* \"#utility.yul\":1805:1810   */\n      dup2\n        /* \"#utility.yul\":1787:1811   */\n      tag_104\n      jump\t// in\n    tag_132:\n        /* \"#utility.yul\":1782:1785   */\n      dup3\n        /* \"#utility.yul\":1775:1812   */\n      mstore\n        /* \"#utility.yul\":1700:1818   */\n      pop\n      pop\n      jump\t// out\n        /* \"#utility.yul\":1824:2046   */\n    tag_25:\n        /* \"#utility.yul\":1917:1921   */\n      0x00\n        /* \"#utility.yul\":1955:1957   */\n      0x20\n        /* \"#utility.yul\":1944:1953   */\n      dup3\n        /* \"#utility.yul\":1940:1958   */\n      add\n        /* \"#utility.yul\":1932:1958   */\n      swap1\n      pop\n        /* \"#utility.yul\":1968:2039   */\n      tag_134\n        /* \"#utility.yul\":2036:2037   */\n      0x00\n        /* \"#utility.yul\":2025:2034   */\n      dup4\n        /* \"#utility.yul\":2021:2038   */\n      add\n        /* \"#utility.yul\":2012:2018   */\n      dup5\n        /* \"#utility.yul\":1968:2039   */\n      tag_105\n      jump\t// in\n    tag_134:\n        /* \"#utility.yul\":1824:2046   */\n      swap3\n      swap2\n      pop\n      pop\n      jump\t// out\n        /* \"#utility.yul\":2052:2221   */\n    tag_106:\n        /* \"#utility.yul\":2136:2147   */\n      0x00\n        /* \"#utility.yul\":2170:2176   */\n      dup3\n        /* \"#utility.yul\":2165:2168   */\n      dup3\n        /* \"#utility.yul\":2158:2177   */\n      mstore\n        /* \"#utility.yul\":2210:2214   */\n      0x20\n        /* \"#utility.yul\":2205:2208   */\n      dup3\n        /* \"#utility.yul\":2201:2215   */\n      add\n        /* \"#utility.yul\":2186:2215   */\n      swap1\n      pop\n        /* \"#utility.yul\":2052:2221   */\n      swap3\n      swap2\n      pop\n      pop\n      jump\t// out\n        /* \"#utility.yul\":2227:2405   */\n    tag_107:\n        /* \"#utility.yul\":2367:2397   */\n      0x506c656173652073656e6420616d6f756e7420746f206368616e676500000000\n        /* \"#utility.yul\":2363:2364   */\n      0x00\n        /* \"#utility.yul\":2355:2361   */\n      dup3\n        /* \"#utility.yul\":2351:2365   */\n      add\n        /* \"#utility.yul\":2344:2398   */\n      mstore\n        /* \"#utility.yul\":2227:2405   */\n      pop\n      jump\t// out\n        /* \"#utility.yul\":2411:2777   */\n    tag_108:\n        /* \"#utility.yul\":2553:2556   */\n      0x00\n        /* \"#utility.yul\":2574:2641   */\n      tag_138\n        /* \"#utility.yul\":2638:2640   */\n      0x1c\n        /* \"#utility.yul\":2633:2636   */\n      dup4\n        /* \"#utility.yul\":2574:2641   */\n      tag_106\n      jump\t// in\n    tag_138:\n        /* \"#utility.yul\":2567:2641   */\n      swap2\n      pop\n        /* \"#utility.yul\":2650:2743   */\n      tag_139\n        /* \"#utility.yul\":2739:2742   */\n      dup3\n        /* \"#utility.yul\":2650:2743   */\n      tag_107\n      jump\t// in\n    tag_139:\n        /* \"#utility.yul\":2768:2770   */\n      0x20\n        /* \"#utility.yul\":2763:2766   */\n      dup3\n        /* \"#utility.yul\":2759:2771   */\n      add\n        /* \"#utility.yul\":2752:2771   */\n      swap1\n      pop\n        /* \"#utility.yul\":2411:2777   */\n      swap2\n      swap1\n      pop\n      jump\t// out\n        /* \"#utility.yul\":2783:3202   */\n    tag_66:\n        /* \"#utility.yul\":2949:2953   */\n      0x00\n        /* \"#utility.yul\":2987:2989   */\n      0x20\n        /* \"#utility.yul\":2976:2985   */\n      dup3\n        /* \"#utility.yul\":2972:2990   */\n      add\n        /* \"#utility.yul\":2964:2990   */\n      swap1\n      pop\n        /* \"#utility.yul\":3036:3045   */\n      dup2\n        /* \"#utility.yul\":3030:3034   */\n      dup2\n        /* \"#utility.yul\":3026:3046   */\n      sub\n        /* \"#utility.yul\":3022:3023   */\n      0x00\n        /* \"#utility.yul\":3011:3020   */\n      dup4\n        /* \"#utility.yul\":3007:3024   */\n      add\n        /* \"#utility.yul\":3000:3047   */\n      mstore\n        /* \"#utility.yul\":3064:3195   */\n      tag_141\n        /* \"#utility.yul\":3190:3194   */\n      dup2\n        /* \"#utility.yul\":3064:3195   */\n      tag_108\n      jump\t// in\n    tag_141:\n        /* \"#utility.yul\":3056:3195   */\n      swap1\n      pop\n        /* \"#utility.yul\":2783:3202   */\n      swap2\n      swap1\n      pop\n      jump\t// out\n        /* \"#utility.yul\":3208:3388   */\n    tag_109:\n        /* \"#utility.yul\":3256:3333   */\n      0x4e487b7100000000000000000000000000000000000000000000000000000000\n        /* \"#utility.yul\":3253:3254   */\n      0x00\n        /* \"#utility.yul\":3246:3334   */\n      mstore\n        /* \"#utility.yul\":3353:3357   */\n      0x11\n        /* \"#utility.yul\":3350:3351   */\n      0x04\n        /* \"#utility.yul\":3343:3358   */\n      mstore\n        /* \"#utility.yul\":3377:3381   */\n      0x24\n        /* \"#utility.yul\":3374:3375   */\n      0x00\n        /* \"#utility.yul\":3367:3382   */\n      revert\n        /* \"#utility.yul\":3394:3804   */\n    tag_94:\n        /* \"#utility.yul\":3434:3441   */\n      0x00\n        /* \"#utility.yul\":3457:3477   */\n      tag_144\n        /* \"#utility.yul\":3475:3476   */\n      dup3\n        /* \"#utility.yul\":3457:3477   */\n      tag_104\n      jump\t// in\n    tag_144:\n        /* \"#utility.yul\":3452:3477   */\n      swap2\n      pop\n        /* \"#utility.yul\":3491:3511   */\n      tag_145\n        /* \"#utility.yul\":3509:3510   */\n      dup4\n        /* \"#utility.yul\":3491:3511   */\n      tag_104\n      jump\t// in\n    tag_145:\n        /* \"#utility.yul\":3486:3511   */\n      swap3\n      pop\n        /* \"#utility.yul\":3546:3547   */\n      dup3\n        /* \"#utility.yul\":3543:3544   */\n      dup3\n        /* \"#utility.yul\":3539:3548   */\n      mul\n        /* \"#utility.yul\":3568:3598   */\n      tag_146\n        /* \"#utility.yul\":3586:3597   */\n      dup2\n        /* \"#utility.yul\":3568:3598   */\n      tag_104\n      jump\t// in\n    tag_146:\n        /* \"#utility.yul\":3557:3598   */\n      swap2\n      pop\n        /* \"#utility.yul\":3747:3748   */\n      dup3\n        /* \"#utility.yul\":3738:3745   */\n      dup3\n        /* \"#utility.yul\":3734:3749   */\n      div\n        /* \"#utility.yul\":3731:3732   */\n      dup5\n        /* \"#utility.yul\":3728:3750   */\n      eq\n        /* \"#utility.yul\":3708:3709   */\n      dup4\n        /* \"#utility.yul\":3701:3710   */\n      iszero\n        /* \"#utility.yul\":3681:3764   */\n      or\n        /* \"#utility.yul\":3658:3797   */\n      tag_147\n      jumpi\n        /* \"#utility.yul\":3777:3795   */\n      tag_148\n      tag_109\n      jump\t// in\n    tag_148:\n        /* \"#utility.yul\":3658:3797   */\n    tag_147:\n        /* \"#utility.yul\":3442:3804   */\n      pop\n        /* \"#utility.yul\":3394:3804   */\n      swap3\n      swap2\n      pop\n      pop\n      jump\t// out\n\n    auxdata: 0xa2646970667358221220b3c62a4eb3025bcf3326da63ae5a1ed534fc9e6d852178717b4887c16b71a1ba64736f6c63430008120033\n}\n",
				"bytecode": {
					"linkReferences": {},
					"object": "608060405233600160006101000a81548173ffffffffffffffffffffffffffffffffffffffff021916908373ffffffffffffffffffffffffffffffffffffffff1602179055506002346100529190610096565b6000819055506100c7565b6000819050919050565b7f4e487b7100000000000000000000000000000000000000000000000000000000600052601260045260246000fd5b60006100a18261005d565b91506100ac8361005d565b9250826100bc576100bb610067565b5b828204905092915050565b610a81806100d66000396000f3fe60806040526004361061007b5760003560e01c80637602065f1161004e5780637602065f146101185780638b5cd554146101435780638f9d1da91461014d578063a41f2f5c146101645761007b565b80631af52a25146100805780632b1bf48f146100ab5780633033413b146100d657806335a063b414610101575b600080fd5b34801561008c57600080fd5b5061009561017b565b6040516100a2919061087c565b60405180910390f35b3480156100b757600080fd5b506100c06101a1565b6040516100cd919061090e565b60405180910390f35b3480156100e257600080fd5b506100eb6101b4565b6040516100f89190610942565b60405180910390f35b34801561010d57600080fd5b506101166101ba565b005b34801561012457600080fd5b5061012d610346565b60405161013a919061087c565b60405180910390f35b61014b61036c565b005b34801561015957600080fd5b50610162610514565b005b34801561017057600080fd5b506101796106a1565b005b600260009054906101000a900473ffffffffffffffffffffffffffffffffffffffff1681565b600260149054906101000a900460ff1681565b60005481565b600160009054906101000a900473ffffffffffffffffffffffffffffffffffffffff1673ffffffffffffffffffffffffffffffffffffffff163373ffffffffffffffffffffffffffffffffffffffff1614610241576040517f0864875400000000000000000000000000000000000000000000000000000000815260040160405180910390fd5b600080600381111561025657610255610897565b5b600260149054906101000a900460ff16600381111561027857610277610897565b5b146102af576040517f51f7639800000000000000000000000000000000000000000000000000000000815260040160405180910390fd5b6003600260146101000a81548160ff021916908360038111156102d5576102d4610897565b5b0217905550600160009054906101000a900473ffffffffffffffffffffffffffffffffffffffff1673ffffffffffffffffffffffffffffffffffffffff166108fc479081150290604051600060405180830381858888f19350505050158015610342573d6000803e3d6000fd5b5050565b600160009054906101000a900473ffffffffffffffffffffffffffffffffffffffff1681565b600080600381111561038157610380610897565b5b600260149054906101000a900460ff1660038111156103a3576103a2610897565b5b146103da576040517f51f7639800000000000000000000000000000000000000000000000000000000815260040160405180910390fd5b600260009054906101000a900473ffffffffffffffffffffffffffffffffffffffff1673ffffffffffffffffffffffffffffffffffffffff163373ffffffffffffffffffffffffffffffffffffffff1614610461576040517fef9f007300000000000000000000000000000000000000000000000000000000815260040160405180910390fd5b60005434146104a5576040517f08c379a000000000000000000000000000000000000000000000000000000000815260040161049c906109ba565b60405180910390fd5b33600260006101000a81548173ffffffffffffffffffffffffffffffffffffffff021916908373ffffffffffffffffffffffffffffffffffffffff1602179055506001600260146101000a81548160ff0219169083600381111561050c5761050b610897565b5b021790555050565b600260009054906101000a900473ffffffffffffffffffffffffffffffffffffffff1673ffffffffffffffffffffffffffffffffffffffff163373ffffffffffffffffffffffffffffffffffffffff161461059b576040517fef9f007300000000000000000000000000000000000000000000000000000000815260040160405180910390fd5b60018060038111156105b0576105af610897565b5b600260149054906101000a900460ff1660038111156105d2576105d1610897565b5b14610609576040517f51f7639800000000000000000000000000000000000000000000000000000000815260040160405180910390fd5b60028060146101000a81548160ff0219169083600381111561062e5761062d610897565b5b0217905550600260009054906101000a900473ffffffffffffffffffffffffffffffffffffffff1673ffffffffffffffffffffffffffffffffffffffff166108fc6000549081150290604051600060405180830381858888f1935050505015801561069d573d6000803e3d6000fd5b5050565b600160009054906101000a900473ffffffffffffffffffffffffffffffffffffffff1673ffffffffffffffffffffffffffffffffffffffff163373ffffffffffffffffffffffffffffffffffffffff1614610728576040517f0864875400000000000000000000000000000000000000000000000000000000815260040160405180910390fd5b600280600381111561073d5761073c610897565b5b600260149054906101000a900460ff16600381111561075f5761075e610897565b5b14610796576040517f51f7639800000000000000000000000000000000000000000000000000000000815260040160405180910390fd5b6003600260146101000a81548160ff021916908360038111156107bc576107bb610897565b5b0217905550600160009054906101000a900473ffffffffffffffffffffffffffffffffffffffff1673ffffffffffffffffffffffffffffffffffffffff166108fc600054600361080c9190610a09565b9081150290604051600060405180830381858888f19350505050158015610837573d6000803e3d6000fd5b5050565b600073ffffffffffffffffffffffffffffffffffffffff82169050919050565b60006108668261083b565b9050919050565b6108768161085b565b82525050565b6000602082019050610891600083018461086d565b92915050565b7f4e487b7100000000000000000000000000000000000000000000000000000000600052602160045260246000fd5b600481106108d7576108d6610897565b5b50565b60008190506108e8826108c6565b919050565b60006108f8826108da565b9050919050565b610908816108ed565b82525050565b600060208201905061092360008301846108ff565b92915050565b6000819050919050565b61093c81610929565b82525050565b60006020820190506109576000830184610933565b92915050565b600082825260208201905092915050565b7f506c656173652073656e6420616d6f756e7420746f206368616e676500000000600082015250565b60006109a4601c8361095d565b91506109af8261096e565b602082019050919050565b600060208201905081810360008301526109d381610997565b9050919050565b7f4e487b7100000000000000000000000000000000000000000000000000000000600052601160045260246000fd5b6000610a1482610929565b9150610a1f83610929565b9250828202610a2d81610929565b91508282048414831517610a4457610a436109da565b5b509291505056fea2646970667358221220b3c62a4eb3025bcf3326da63ae5a1ed534fc9e6d852178717b4887c16b71a1ba64736f6c63430008120033",
					"opcodes": "PUSH1 0x80 PUSH1 0x40 MSTORE CALLER PUSH1 0x1 PUSH1 0x0 PUSH2 0x100 EXP DUP2 SLOAD DUP2 PUSH20 0xFFFFFFFFFFFFFFFFFFFFFFFFFFFFFFFFFFFFFFFF MUL NOT AND SWAP1 DUP4 PUSH20 0xFFFFFFFFFFFFFFFFFFFFFFFFFFFFFFFFFFFFFFFF AND MUL OR SWAP1 SSTORE POP PUSH1 0x2 CALLVALUE PUSH2 0x52 SWAP2 SWAP1 PUSH2 0x96 JUMP JUMPDEST PUSH1 0x0 DUP2 SWAP1 SSTORE POP PUSH2 0xC7 JUMP JUMPDEST PUSH1 0x0 DUP2 SWAP1 POP SWAP2 SWAP1 POP JUMP JUMPDEST PUSH32 0x4E487B7100000000000000000000000000000000000000000000000000000000 PUSH1 0x0 MSTORE PUSH1 0x12 PUSH1 0x4 MSTORE PUSH1 0x24 PUSH1 0x0 REVERT JUMPDEST PUSH1 0x0 PUSH2 0xA1 DUP3 PUSH2 0x5D JUMP JUMPDEST SWAP2 POP PUSH2 0xAC DUP4 PUSH2 0x5D JUMP JUMPDEST SWAP3 POP DUP3 PUSH2 0xBC JUMPI PUSH2 0xBB PUSH2 0x67 JUMP JUMPDEST JUMPDEST DUP3 DUP3 DIV SWAP1 POP SWAP3 SWAP2 POP POP JUMP JUMPDEST PUSH2 0xA81 DUP1 PUSH2 0xD6 PUSH1 0x0 CODECOPY PUSH1 0x0 RETURN INVALID PUSH1 0x80 PUSH1 0x40 MSTORE PUSH1 0x4 CALLDATASIZE LT PUSH2 0x7B JUMPI PUSH1 0x0 CALLDATALOAD PUSH1 0xE0 SHR DUP1 PUSH4 0x7602065F GT PUSH2 0x4E JUMPI DUP1 PUSH4 0x7602065F EQ PUSH2 0x118 JUMPI DUP1 PUSH4 0x8B5CD554 EQ PUSH2 0x143 JUMPI DUP1 PUSH4 0x8F9D1DA9 EQ PUSH2 0x14D JUMPI DUP1 PUSH4 0xA41F2F5C EQ PUSH2 0x164 JUMPI PUSH2 0x7B JUMP JUMPDEST DUP1 PUSH4 0x1AF52A25 EQ PUSH2 0x80 JUMPI DUP1 PUSH4 0x2B1BF48F EQ PUSH2 0xAB JUMPI DUP1 PUSH4 0x3033413B EQ PUSH2 0xD6 JUMPI DUP1 PUSH4 0x35A063B4 EQ PUSH2 0x101 JUMPI JUMPDEST PUSH1 0x0 DUP1 REVERT JUMPDEST CALLVALUE DUP1 ISZERO PUSH2 0x8C JUMPI PUSH1 0x0 DUP1 REVERT JUMPDEST POP PUSH2 0x95 PUSH2 0x17B JUMP JUMPDEST PUSH1 0x40 MLOAD PUSH2 0xA2 SWAP2 SWAP1 PUSH2 0x87C JUMP JUMPDEST PUSH1 0x40 MLOAD DUP1 SWAP2 SUB SWAP1 RETURN JUMPDEST CALLVALUE DUP1 ISZERO PUSH2 0xB7 JUMPI PUSH1 0x0 DUP1 REVERT JUMPDEST POP PUSH2 0xC0 PUSH2 0x1A1 JUMP JUMPDEST PUSH1 0x40 MLOAD PUSH2 0xCD SWAP2 SWAP1 PUSH2 0x90E JUMP JUMPDEST PUSH1 0x40 MLOAD DUP1 SWAP2 SUB SWAP1 RETURN JUMPDEST CALLVALUE DUP1 ISZERO PUSH2 0xE2 JUMPI PUSH1 0x0 DUP1 REVERT JUMPDEST POP PUSH2 0xEB PUSH2 0x1B4 JUMP JUMPDEST PUSH1 0x40 MLOAD PUSH2 0xF8 SWAP2 SWAP1 PUSH2 0x942 JUMP JUMPDEST PUSH1 0x40 MLOAD DUP1 SWAP2 SUB SWAP1 RETURN JUMPDEST CALLVALUE DUP1 ISZERO PUSH2 0x10D JUMPI PUSH1 0x0 DUP1 REVERT JUMPDEST POP PUSH2 0x116 PUSH2 0x1BA JUMP JUMPDEST STOP JUMPDEST CALLVALUE DUP1 ISZERO PUSH2 0x124 JUMPI PUSH1 0x0 DUP1 REVERT JUMPDEST POP PUSH2 0x12D PUSH2 0x346 JUMP JUMPDEST PUSH1 0x40 MLOAD PUSH2 0x13A SWAP2 SWAP1 PUSH2 0x87C JUMP JUMPDEST PUSH1 0x40 MLOAD DUP1 SWAP2 SUB SWAP1 RETURN JUMPDEST PUSH2 0x14B PUSH2 0x36C JUMP JUMPDEST STOP JUMPDEST CALLVALUE DUP1 ISZERO PUSH2 0x159 JUMPI PUSH1 0x0 DUP1 REVERT JUMPDEST POP PUSH2 0x162 PUSH2 0x514 JUMP JUMPDEST STOP JUMPDEST CALLVALUE DUP1 ISZERO PUSH2 0x170 JUMPI PUSH1 0x0 DUP1 REVERT JUMPDEST POP PUSH2 0x179 PUSH2 0x6A1 JUMP JUMPDEST STOP JUMPDEST PUSH1 0x2 PUSH1 0x0 SWAP1 SLOAD SWAP1 PUSH2 0x100 EXP SWAP1 DIV PUSH20 0xFFFFFFFFFFFFFFFFFFFFFFFFFFFFFFFFFFFFFFFF AND DUP2 JUMP JUMPDEST PUSH1 0x2 PUSH1 0x14 SWAP1 SLOAD SWAP1 PUSH2 0x100 EXP SWAP1 DIV PUSH1 0xFF AND DUP2 JUMP JUMPDEST PUSH1 0x0 SLOAD DUP2 JUMP JUMPDEST PUSH1 0x1 PUSH1 0x0 SWAP1 SLOAD SWAP1 PUSH2 0x100 EXP SWAP1 DIV PUSH20 0xFFFFFFFFFFFFFFFFFFFFFFFFFFFFFFFFFFFFFFFF AND PUSH20 0xFFFFFFFFFFFFFFFFFFFFFFFFFFFFFFFFFFFFFFFF AND CALLER PUSH20 0xFFFFFFFFFFFFFFFFFFFFFFFFFFFFFFFFFFFFFFFF AND EQ PUSH2 0x241 JUMPI PUSH1 0x40 MLOAD PUSH32 0x864875400000000000000000000000000000000000000000000000000000000 DUP2 MSTORE PUSH1 0x4 ADD PUSH1 0x40 MLOAD DUP1 SWAP2 SUB SWAP1 REVERT JUMPDEST PUSH1 0x0 DUP1 PUSH1 0x3 DUP2 GT ISZERO PUSH2 0x256 JUMPI PUSH2 0x255 PUSH2 0x897 JUMP JUMPDEST JUMPDEST PUSH1 0x2 PUSH1 0x14 SWAP1 SLOAD SWAP1 PUSH2 0x100 EXP SWAP1 DIV PUSH1 0xFF AND PUSH1 0x3 DUP2 GT ISZERO PUSH2 0x278 JUMPI PUSH2 0x277 PUSH2 0x897 JUMP JUMPDEST JUMPDEST EQ PUSH2 0x2AF JUMPI PUSH1 0x40 MLOAD PUSH32 0x51F7639800000000000000000000000000000000000000000000000000000000 DUP2 MSTORE PUSH1 0x4 ADD PUSH1 0x40 MLOAD DUP1 SWAP2 SUB SWAP1 REVERT JUMPDEST PUSH1 0x3 PUSH1 0x2 PUSH1 0x14 PUSH2 0x100 EXP DUP2 SLOAD DUP2 PUSH1 0xFF MUL NOT AND SWAP1 DUP4 PUSH1 0x3 DUP2 GT ISZERO PUSH2 0x2D5 JUMPI PUSH2 0x2D4 PUSH2 0x897 JUMP JUMPDEST JUMPDEST MUL OR SWAP1 SSTORE POP PUSH1 0x1 PUSH1 0x0 SWAP1 SLOAD SWAP1 PUSH2 0x100 EXP SWAP1 DIV PUSH20 0xFFFFFFFFFFFFFFFFFFFFFFFFFFFFFFFFFFFFFFFF AND PUSH20 0xFFFFFFFFFFFFFFFFFFFFFFFFFFFFFFFFFFFFFFFF AND PUSH2 0x8FC SELFBALANCE SWAP1 DUP2 ISZERO MUL SWAP1 PUSH1 0x40 MLOAD PUSH1 0x0 PUSH1 0x40 MLOAD DUP1 DUP4 SUB DUP2 DUP6 DUP9 DUP9 CALL SWAP4 POP POP POP POP ISZERO DUP1 ISZERO PUSH2 0x342 JUMPI RETURNDATASIZE PUSH1 0x0 DUP1 RETURNDATACOPY RETURNDATASIZE PUSH1 0x0 REVERT JUMPDEST POP POP JUMP JUMPDEST PUSH1 0x1 PUSH1 0x0 SWAP1 SLOAD SWAP1 PUSH2 0x100 EXP SWAP1 DIV PUSH20 0xFFFFFFFFFFFFFFFFFFFFFFFFFFFFFFFFFFFFFFFF AND DUP2 JUMP JUMPDEST PUSH1 0x0 DUP1 PUSH1 0x3 DUP2 GT ISZERO PUSH2 0x381 JUMPI PUSH2 0x380 PUSH2 0x897 JUMP JUMPDEST JUMPDEST PUSH1 0x2 PUSH1 0x14 SWAP1 SLOAD SWAP1 PUSH2 0x100 EXP SWAP1 DIV PUSH1 0xFF AND PUSH1 0x3 DUP2 GT ISZERO PUSH2 0x3A3 JUMPI PUSH2 0x3A2 PUSH2 0x897 JUMP JUMPDEST JUMPDEST EQ PUSH2 0x3DA JUMPI PUSH1 0x40 MLOAD PUSH32 0x51F7639800000000000000000000000000000000000000000000000000000000 DUP2 MSTORE PUSH1 0x4 ADD PUSH1 0x40 MLOAD DUP1 SWAP2 SUB SWAP1 REVERT JUMPDEST PUSH1 0x2 PUSH1 0x0 SWAP1 SLOAD SWAP1 PUSH2 0x100 EXP SWAP1 DIV PUSH20 0xFFFFFFFFFFFFFFFFFFFFFFFFFFFFFFFFFFFFFFFF AND PUSH20 0xFFFFFFFFFFFFFFFFFFFFFFFFFFFFFFFFFFFFFFFF AND CALLER PUSH20 0xFFFFFFFFFFFFFFFFFFFFFFFFFFFFFFFFFFFFFFFF AND EQ PUSH2 0x461 JUMPI PUSH1 0x40 MLOAD PUSH32 0xEF9F007300000000000000000000000000000000000000000000000000000000 DUP2 MSTORE PUSH1 0x4 ADD PUSH1 0x40 MLOAD DUP1 SWAP2 SUB SWAP1 REVERT JUMPDEST PUSH1 0x0 SLOAD CALLVALUE EQ PUSH2 0x4A5 JUMPI PUSH1 0x40 MLOAD PUSH32 0x8C379A000000000000000000000000000000000000000000000000000000000 DUP2 MSTORE PUSH1 0x4 ADD PUSH2 0x49C SWAP1 PUSH2 0x9BA JUMP JUMPDEST PUSH1 0x40 MLOAD DUP1 SWAP2 SUB SWAP1 REVERT JUMPDEST CALLER PUSH1 0x2 PUSH1 0x0 PUSH2 0x100 EXP DUP2 SLOAD DUP2 PUSH20 0xFFFFFFFFFFFFFFFFFFFFFFFFFFFFFFFFFFFFFFFF MUL NOT AND SWAP1 DUP4 PUSH20 0xFFFFFFFFFFFFFFFFFFFFFFFFFFFFFFFFFFFFFFFF AND MUL OR SWAP1 SSTORE POP PUSH1 0x1 PUSH1 0x2 PUSH1 0x14 PUSH2 0x100 EXP DUP2 SLOAD DUP2 PUSH1 0xFF MUL NOT AND SWAP1 DUP4 PUSH1 0x3 DUP2 GT ISZERO PUSH2 0x50C JUMPI PUSH2 0x50B PUSH2 0x897 JUMP JUMPDEST JUMPDEST MUL OR SWAP1 SSTORE POP POP JUMP JUMPDEST PUSH1 0x2 PUSH1 0x0 SWAP1 SLOAD SWAP1 PUSH2 0x100 EXP SWAP1 DIV PUSH20 0xFFFFFFFFFFFFFFFFFFFFFFFFFFFFFFFFFFFFFFFF AND PUSH20 0xFFFFFFFFFFFFFFFFFFFFFFFFFFFFFFFFFFFFFFFF AND CALLER PUSH20 0xFFFFFFFFFFFFFFFFFFFFFFFFFFFFFFFFFFFFFFFF AND EQ PUSH2 0x59B JUMPI PUSH1 0x40 MLOAD PUSH32 0xEF9F007300000000000000000000000000000000000000000000000000000000 DUP2 MSTORE PUSH1 0x4 ADD PUSH1 0x40 MLOAD DUP1 SWAP2 SUB SWAP1 REVERT JUMPDEST PUSH1 0x1 DUP1 PUSH1 0x3 DUP2 GT ISZERO PUSH2 0x5B0 JUMPI PUSH2 0x5AF PUSH2 0x897 JUMP JUMPDEST JUMPDEST PUSH1 0x2 PUSH1 0x14 SWAP1 SLOAD SWAP1 PUSH2 0x100 EXP SWAP1 DIV PUSH1 0xFF AND PUSH1 0x3 DUP2 GT ISZERO PUSH2 0x5D2 JUMPI PUSH2 0x5D1 PUSH2 0x897 JUMP JUMPDEST JUMPDEST EQ PUSH2 0x609 JUMPI PUSH1 0x40 MLOAD PUSH32 0x51F7639800000000000000000000000000000000000000000000000000000000 DUP2 MSTORE PUSH1 0x4 ADD PUSH1 0x40 MLOAD DUP1 SWAP2 SUB SWAP1 REVERT JUMPDEST PUSH1 0x2 DUP1 PUSH1 0x14 PUSH2 0x100 EXP DUP2 SLOAD DUP2 PUSH1 0xFF MUL NOT AND SWAP1 DUP4 PUSH1 0x3 DUP2 GT ISZERO PUSH2 0x62E JUMPI PUSH2 0x62D PUSH2 0x897 JUMP JUMPDEST JUMPDEST MUL OR SWAP1 SSTORE POP PUSH1 0x2 PUSH1 0x0 SWAP1 SLOAD SWAP1 PUSH2 0x100 EXP SWAP1 DIV PUSH20 0xFFFFFFFFFFFFFFFFFFFFFFFFFFFFFFFFFFFFFFFF AND PUSH20 0xFFFFFFFFFFFFFFFFFFFFFFFFFFFFFFFFFFFFFFFF AND PUSH2 0x8FC PUSH1 0x0 SLOAD SWAP1 DUP2 ISZERO MUL SWAP1 PUSH1 0x40 MLOAD PUSH1 0x0 PUSH1 0x40 MLOAD DUP1 DUP4 SUB DUP2 DUP6 DUP9 DUP9 CALL SWAP4 POP POP POP POP ISZERO DUP1 ISZERO PUSH2 0x69D JUMPI RETURNDATASIZE PUSH1 0x0 DUP1 RETURNDATACOPY RETURNDATASIZE PUSH1 0x0 REVERT JUMPDEST POP POP JUMP JUMPDEST PUSH1 0x1 PUSH1 0x0 SWAP1 SLOAD SWAP1 PUSH2 0x100 EXP SWAP1 DIV PUSH20 0xFFFFFFFFFFFFFFFFFFFFFFFFFFFFFFFFFFFFFFFF AND PUSH20 0xFFFFFFFFFFFFFFFFFFFFFFFFFFFFFFFFFFFFFFFF AND CALLER PUSH20 0xFFFFFFFFFFFFFFFFFFFFFFFFFFFFFFFFFFFFFFFF AND EQ PUSH2 0x728 JUMPI PUSH1 0x40 MLOAD PUSH32 0x864875400000000000000000000000000000000000000000000000000000000 DUP2 MSTORE PUSH1 0x4 ADD PUSH1 0x40 MLOAD DUP1 SWAP2 SUB SWAP1 REVERT JUMPDEST PUSH1 0x2 DUP1 PUSH1 0x3 DUP2 GT ISZERO PUSH2 0x73D JUMPI PUSH2 0x73C PUSH2 0x897 JUMP JUMPDEST JUMPDEST PUSH1 0x2 PUSH1 0x14 SWAP1 SLOAD SWAP1 PUSH2 0x100 EXP SWAP1 DIV PUSH1 0xFF AND PUSH1 0x3 DUP2 GT ISZERO PUSH2 0x75F JUMPI PUSH2 0x75E PUSH2 0x897 JUMP JUMPDEST JUMPDEST EQ PUSH2 0x796 JUMPI PUSH1 0x40 MLOAD PUSH32 0x51F7639800000000000000000000000000000000000000000000000000000000 DUP2 MSTORE PUSH1 0x4 ADD PUSH1 0x40 MLOAD DUP1 SWAP2 SUB SWAP1 REVERT JUMPDEST PUSH1 0x3 PUSH1 0x2 PUSH1 0x14 PUSH2 0x100 EXP DUP2 SLOAD DUP2 PUSH1 0xFF MUL NOT AND SWAP1 DUP4 PUSH1 0x3 DUP2 GT ISZERO PUSH2 0x7BC JUMPI PUSH2 0x7BB PUSH2 0x897 JUMP JUMPDEST JUMPDEST MUL OR SWAP1 SSTORE POP PUSH1 0x1 PUSH1 0x0 SWAP1 SLOAD SWAP1 PUSH2 0x100 EXP SWAP1 DIV PUSH20 0xFFFFFFFFFFFFFFFFFFFFFFFFFFFFFFFFFFFFFFFF AND PUSH20 0xFFFFFFFFFFFFFFFFFFFFFFFFFFFFFFFFFFFFFFFF AND PUSH2 0x8FC PUSH1 0x0 SLOAD PUSH1 0x3 PUSH2 0x80C SWAP2 SWAP1 PUSH2 0xA09 JUMP JUMPDEST SWAP1 DUP2 ISZERO MUL SWAP1 PUSH1 0x40 MLOAD PUSH1 0x0 PUSH1 0x40 MLOAD DUP1 DUP4 SUB DUP2 DUP6 DUP9 DUP9 CALL SWAP4 POP POP POP POP ISZERO DUP1 ISZERO PUSH2 0x837 JUMPI RETURNDATASIZE PUSH1 0x0 DUP1 RETURNDATACOPY RETURNDATASIZE PUSH1 0x0 REVERT JUMPDEST POP POP JUMP JUMPDEST PUSH1 0x0 PUSH20 0xFFFFFFFFFFFFFFFFFFFFFFFFFFFFFFFFFFFFFFFF DUP3 AND SWAP1 POP SWAP2 SWAP1 POP JUMP JUMPDEST PUSH1 0x0 PUSH2 0x866 DUP3 PUSH2 0x83B JUMP JUMPDEST SWAP1 POP SWAP2 SWAP1 POP JUMP JUMPDEST PUSH2 0x876 DUP2 PUSH2 0x85B JUMP JUMPDEST DUP3 MSTORE POP POP JUMP JUMPDEST PUSH1 0x0 PUSH1 0x20 DUP3 ADD SWAP1 POP PUSH2 0x891 PUSH1 0x0 DUP4 ADD DUP5 PUSH2 0x86D JUMP JUMPDEST SWAP3 SWAP2 POP POP JUMP JUMPDEST PUSH32 0x4E487B7100000000000000000000000000000000000000000000000000000000 PUSH1 0x0 MSTORE PUSH1 0x21 PUSH1 0x4 MSTORE PUSH1 0x24 PUSH1 0x0 REVERT JUMPDEST PUSH1 0x4 DUP2 LT PUSH2 0x8D7 JUMPI PUSH2 0x8D6 PUSH2 0x897 JUMP JUMPDEST JUMPDEST POP JUMP JUMPDEST PUSH1 0x0 DUP2 SWAP1 POP PUSH2 0x8E8 DUP3 PUSH2 0x8C6 JUMP JUMPDEST SWAP2 SWAP1 POP JUMP JUMPDEST PUSH1 0x0 PUSH2 0x8F8 DUP3 PUSH2 0x8DA JUMP JUMPDEST SWAP1 POP SWAP2 SWAP1 POP JUMP JUMPDEST PUSH2 0x908 DUP2 PUSH2 0x8ED JUMP JUMPDEST DUP3 MSTORE POP POP JUMP JUMPDEST PUSH1 0x0 PUSH1 0x20 DUP3 ADD SWAP1 POP PUSH2 0x923 PUSH1 0x0 DUP4 ADD DUP5 PUSH2 0x8FF JUMP JUMPDEST SWAP3 SWAP2 POP POP JUMP JUMPDEST PUSH1 0x0 DUP2 SWAP1 POP SWAP2 SWAP1 POP JUMP JUMPDEST PUSH2 0x93C DUP2 PUSH2 0x929 JUMP JUMPDEST DUP3 MSTORE POP POP JUMP JUMPDEST PUSH1 0x0 PUSH1 0x20 DUP3 ADD SWAP1 POP PUSH2 0x957 PUSH1 0x0 DUP4 ADD DUP5 PUSH2 0x933 JUMP JUMPDEST SWAP3 SWAP2 POP POP JUMP JUMPDEST PUSH1 0x0 DUP3 DUP3 MSTORE PUSH1 0x20 DUP3 ADD SWAP1 POP SWAP3 SWAP2 POP POP JUMP JUMPDEST PUSH32 0x506C656173652073656E6420616D6F756E7420746F206368616E676500000000 PUSH1 0x0 DUP3 ADD MSTORE POP JUMP JUMPDEST PUSH1 0x0 PUSH2 0x9A4 PUSH1 0x1C DUP4 PUSH2 0x95D JUMP JUMPDEST SWAP2 POP PUSH2 0x9AF DUP3 PUSH2 0x96E JUMP JUMPDEST PUSH1 0x20 DUP3 ADD SWAP1 POP SWAP2 SWAP1 POP JUMP JUMPDEST PUSH1 0x0 PUSH1 0x20 DUP3 ADD SWAP1 POP DUP2 DUP2 SUB PUSH1 0x0 DUP4 ADD MSTORE PUSH2 0x9D3 DUP2 PUSH2 0x997 JUMP JUMPDEST SWAP1 POP SWAP2 SWAP1 POP JUMP JUMPDEST PUSH32 0x4E487B7100000000000000000000000000000000000000000000000000000000 PUSH1 0x0 MSTORE PUSH1 0x11 PUSH1 0x4 MSTORE PUSH1 0x24 PUSH1 0x0 REVERT JUMPDEST PUSH1 0x0 PUSH2 0xA14 DUP3 PUSH2 0x929 JUMP JUMPDEST SWAP2 POP PUSH2 0xA1F DUP4 PUSH2 0x929 JUMP JUMPDEST SWAP3 POP DUP3 DUP3 MUL PUSH2 0xA2D DUP2 PUSH2 0x929 JUMP JUMPDEST SWAP2 POP DUP3 DUP3 DIV DUP5 EQ DUP4 ISZERO OR PUSH2 0xA44 JUMPI PUSH2 0xA43 PUSH2 0x9DA JUMP JUMPDEST JUMPDEST POP SWAP3 SWAP2 POP POP JUMP INVALID LOG2 PUSH5 0x6970667358 0x22 SLT KECCAK256 0xB3 0xC6 0x2A 0x4E 0xB3 MUL JUMPDEST 0xCF CALLER 0x26 0xDA PUSH4 0xAE5A1ED5 CALLVALUE 0xFC SWAP15 PUSH14 0x852178717B4887C16B71A1BA6473 PUSH16 0x6C634300081200330000000000000000 "
				},
				"gasEstimates": {
					"creation": {
						"codeDepositCost": "537800",
						"executionCost": "infinite",
						"totalCost": "infinite"
					},
					"external": {
						"abort()": "infinite",
						"cash_provider()": "2515",
						"confirm_received()": "infinite",
						"confirm_transaction()": "55303",
						"contract_status()": "2633",
						"nomada()": "2514",
						"pay_cash_provider()": "infinite",
						"value1()": "2474"
					}
				},
				"methodIdentifiers": {
					"abort()": "35a063b4",
					"cash_provider()": "1af52a25",
					"confirm_received()": "8f9d1da9",
					"confirm_transaction()": "8b5cd554",
					"contract_status()": "2b1bf48f",
					"nomada()": "7602065f",
					"pay_cash_provider()": "a41f2f5c",
					"value1()": "3033413b"
				}
			},
			"storageLayout": {
				"storage": [
					{
						"astId": 3,
						"contract": "contracts/wallet_conecter1/wallet_conecter1.sol:purchase_confirmation",
						"label": "value1",
						"offset": 0,
						"slot": "0",
						"type": "t_uint256"
					},
					{
						"astId": 5,
						"contract": "contracts/wallet_conecter1/wallet_conecter1.sol:purchase_confirmation",
						"label": "nomada",
						"offset": 0,
						"slot": "1",
						"type": "t_address_payable"
					},
					{
						"astId": 7,
						"contract": "contracts/wallet_conecter1/wallet_conecter1.sol:purchase_confirmation",
						"label": "cash_provider",
						"offset": 0,
						"slot": "2",
						"type": "t_address_payable"
					},
					{
						"astId": 15,
						"contract": "contracts/wallet_conecter1/wallet_conecter1.sol:purchase_confirmation",
						"label": "contract_status",
						"offset": 20,
						"slot": "2",
						"type": "t_enum(state)12"
					}
				],
				"types": {
					"t_address_payable": {
						"encoding": "inplace",
						"label": "address payable",
						"numberOfBytes": "20"
					},
					"t_enum(state)12": {
						"encoding": "inplace",
						"label": "enum purchase_confirmation.state",
						"numberOfBytes": "1"
					},
					"t_uint256": {
						"encoding": "inplace",
						"label": "uint256",
						"numberOfBytes": "32"
					}
				}
			},
			"userdoc": {
				"errors": {
					"invalid_state()": [
						{
							"notice": "The function cannot be called at the current state."
						}
					],
					"just_cash_provider()": [
						{
							"notice": "Only the cash provider can call this function"
						}
					],
					"just_nomada()": [
						{
							"notice": "Only the nomada can call this function"
						}
					]
				},
				"kind": "user",
				"methods": {},
				"version": 1
			}
		}
	}
}